S0120000416E64757269645069642E737265632E
S11300000C94FE000C941B010C941B010C941B011A
S11300100C941B010C941B010C941B010C941B01EC
S11300200C941B010C941B010C941B010C941B01DC
S11300300C941B010C941B010C941B010C941B01CC
S11300400C941B010C941B010C941B010C941B01BC
S11300500C941B010C941B010C941B010C941B01AC
S11300600C941B010C941B010C941B010C941B019C
S11300700C941B010C941B010C941B010C941B018C
S11300800C941B010C941B010C941B010C941B017C
S11300900C941B010C941B010C941B010C941B016C
S11300A00C941B010C941B010C941B010C941B015C
S11300B00C941B010C941B010C9480040C944901B6
S11300C00C941B010C941B010C941B010C941B013C
S11300D00C941B010C941B010C941B010C941B012C
S11300E00C941B010C941B010C94D0010C94F6018C
S11300F00C941B010C941B010C941B010C941B010C
S11301000C941B010C941B010C941B010C941B01FB
S11301100C941B010C941B010C941B010C941B01EB
S11301200C941B010C941B010C941B010C941B01DB
S11301300C941B010C941B010C941B010C941B01CB
S11301400C941B010C941B010C941B010C941B01BB
S11301500C941B010C941B010C941B010C941B01AB
S11301600C941B010C941B010C941B010C941B019B
S11301700C941B010C941B010C941B010C941B018B
S11301800C941B010C941B010C941B010C941B017B
S11301900C941B010C941B010C941B010C941B016B
S11301A00C941B010C941B010C941B010C941B015B
S11301B00C941B010C941B010C941B010C941B014B
S11301C00C941B010C941B010C941B010C941B013B
S11301D00C941B010C941B010C941B010C941B012B
S11301E00C941B010C941B010C941B010C941B011B
S11301F00C941B010C941B010C941B0111241FBEB5
S1130200CFEFCDBFDFE2DEBF10E2A0E0B0E2E6EA6E
S1130210F3E102C005900D92A830B107D9F720E2AE
S1130220A8E0B0E201C01D92AF37B207E1F70E9427
S1130230EC050C94D1090C94000080E092E00E943B
S11302405A02E0E0F2E08181897E806181838281CB
S11302508F78806182838481887F84608483A0E234
S1130260B2E08C91807E81608C9380E411968C93B3
S113027080818160808380E092E00E941C0241E0E2
S113028060E272E080E092E00E94270280930820FE
S113029008951F920F920FB60F9211248F939F937C
S11302A0AF93BF938091092090910A20A0910B20D5
S11302B0B0910C200196A11DB11D8093092090934B
S11302C00A20A0930B20B0930C20BF91AF919F9173
S11302D08F910F900FBE0F901F901895CF92DF92C1
S11302E0EF92FF92CF93DF936B017C01E0E8F6E09D
S11302F088E0818384E0828341E060EA7AE08DE0F3
S113030090E20E940404C0910D20D0910E2083E05D
S11303108D838B818F7C80618B83CC0CDD1CEE1CE8
S1130320FF1CCC0CDD1CEE1CFF1CA7019601220F48
S1130330331F441F551F220F331F441F551F60E0F6
S113034078E488EE91E00E94E406E0EAFAE026838D
S1130350BB27A52F942F832F87838C8180618C8367
S11303608C8188608C83E0EAF0E082818160828302
S11303707894DF91CF91FF90EF90DF90CF90089524
S1130380CF93DF93EC0106C08DE090E20E941F043E
S11303908111219668816111F7CFDF91CF91089582
S11303A01F920F920FB60F9211242F933F934F93E6
S11303B05F936F937F938F939F93AF93BF93EF93C9
S11303C0FF938DE090E20E943F04FF91EF91BF9173
S11303D0AF919F918F917F916F915F914F913F91D9
S11303E02F910F900FBE0F901F9018951F920F9290
S11303F00FB60F9211242F933F934F935F936F93F4
S11304007F938F939F93AF93BF93EF93FF938DE06D
S113041090E20E945B04FF91EF91BF91AF919F9195
S11304208F917F916F915F914F913F912F910F9099
S11304300FBE0F901F901895FC0184811482AFEFBA
S1130440B1E01197F1F700C0000084830895FB0127
S11304504423E1F084E090E020E030E061E040817A
S113046040684083438140FFFDCF638344815581CD
S1130470240F351F0197009791F7C90199230CF4B4
S113048003969595879595958795089580818068BD
S11304908083838180FFFDCF81E083838481958184
S11304A0089592E09093CA01E82FF0E084911092AD
S11304B0CA010895CF93DF93EC01C11582E0D807F8
S11304C059F480E20E945102C0E0D2E08C8781E2BC
S11304D00E9451028D8708C084E20E9451028C87D9
S11304E085E20E9451028D87DF91CF9108950F9389
S11304F0CF93DF931F92CDB7DEB72FB72983F8943C
S11305001BBEFC0108ED04BF608389818FBF0F907F
S1130510DF91CF910F910895682B81E490E00E94C0
S1130520770208951F93CF93DF93182FC0E4D0E090
S11305306881687F682B80E490E00E94770288815C
S11305408123DF91CF911F910895FC014423F9F099
S11305506630F0F587E090E0062E02C0880F991F00
S11305600A94E2F7828384E090E0062E02C0880FAA
S1130570991F0A94E2F78093B0008089887F222330
S113058011F090E401C090E0892B808B0BC06730A0
S113059008F583E090E0062E02C0880F991F0A94A4
S11305A0E2F7828383E090E0AC0102C0440F551F60
S11305B06A95E2F74093B0008089887F83602223A4
S11305C011F090E401C090E0892B808B81E00895C4
S11305D080E0089580E008958230A9F0843021F10C
S11305E0811133C0E0E8F1E0608389E0808744232F
S11305F071F16E5F618381E0818780858061282B42
S1130600208781E00895E0E8F1E0628389E0828751
S11306104423F9F06E5F638381E083878285806180
S1130620282B228781E00895E0E8F1E0648389E0E3
S11306308487442381F06E5F658381E085878485A8
S11306408061282B248781E0089580E0089581E06B
S1130650089581E0089581E008958F92AF92BF924A
S1130660CF92EF920F931F93CF93DF93CDB7DEB763
S1130670122F242F4E2D0E94A502882391F02C2D99
S11306804E2D602F812F0E94EC02882351F0982D6B
S11306909066F50193832FEF3FEF26A337A391E0F4
S11306A09083DF91CF911F910F91EF90CF90BF90E6
S11306B0AF908F900895FC012081207F622B60838E
S11306C00895FC012181287F622B61830895FC0138
S11306D02181607F622B61830895FC012181607F09
S11306E06095622361830895FC0126812C7F622B2F
S11306F066830895FC01A081B18114968C911497AE
S113070082FF03C094E0928B02C093E0928B8860D6
S113071014968C93118A0895CF93DF93FC019585E9
S11307202685A081B18114968C91149784FF07C00B
S113073083E013968C9385E0828B118A1CC0878595
S1130740891758F48785EF01C80FD11D8B8117963F
S11307508C9387858F5F87870EC08089821728F4E2
S11307608281816016968C9306C083E013968C93E5
S113077081E0828B118ADF91CF910895FC018089F9
S1130780883070F4A081B18117968C919089DF0133
S1130790A90FB11D15968C9380898F5F808B08C03B
S11307A0A081B18183E013968C9382E0828B118ABD
S11307B096858089891730F40190F081E02D82E0DC
S11307C083830895A081B18187E013968C9381E09F
S11307D0828B118A0895DC01ED91FC912481322FE2
S11307E03C7019F00E947A03089526FF03C00E940A
S11307F08C03089522231CF40E94BE03089526E06E
S1130800FC01228B118A0895FC0160837183428369
S1130810EC5BFF4F10823197108233961082319730
S113082010820895FC01EB5BFF4F2081319690818B
S11308302F5F2F7181E0291301C080E008951F9379
S1130840CF93DF93EC01162F0E941204882399F0B2
S1130850FE01EB5BFF4F9081DE01A90FB11D939662
S11308601C939F5F9F719083E881F98193819C7FA2
S11308702A81922B9383DF91CF911F910895FC01DC
S1130880ED5BFF4F20812F5F2F7131963081DC01AA
S1130890ED91FC9111974081231759F0FC01ED5B18
S11308A0FF4F3081A30FB11D13964C93208381E039
S11308B0089580E00895CF93DF93FC01EA5BFF4F36
S11308C0208131973081321307C0DC01ED91FC9116
S11308D083818C7F838311C0FC01EA5BFF4F2081FD
S11308E0DC01A20FB11D93962C91EC01A881B98172
S11308F02C9380818F5F8F718083DF91CF910895D6
S11309001F920F920FB60F9211242F933F934F9380
S11309105F936F937F938F939F93AF93BF93EF9363
S1130920FF9386E690E20E94EB03FF91EF91BF9163
S1130930AF919F918F917F916F915F914F913F9173
S11309402F910F900FBE0F901F901895CF93DF93A8
S1130950E0E6F6E08FE081838683C0E0D9E088EEAC
S113096093E08EA39FA363E080E099E00E9461037B
S113097060EF80E099E00E946D0361E080E099E01F
S11309800E945B0318AE19AE1AAE1BAE1CAE1DAEB0
S113099010923E0910923F09E0EEF7E083E0808375
S11309A014828FE39FE10197F1F700C0000083E018
S11309B08483DF91CF9108958F92AF92BF92CF92AB
S11309C0EF920F93CF93C1E0CF936894882483F878
S11309D0A12C6894BB24B3F8C12CE12C02E620E0DE
S11309E040E062E080E496E00E942D03CF930F2E56
S11309F0FAE08F2EF02D6894AA24A6F8BB24B3F84D
S1130A0004E622E040E064E080E496E00E942D03E6
S1130A10E0E4F6E084898064848B0F900F90CF919A
S1130A200F91EF90CF90BF90AF908F9008950F9358
S1130A301F93CF93DF938C01EB011C161D06C4F4A6
S1130A4060E480E099E00E946D0360E880E099E052
S1130A500E946703E0E6F6E084818460848389EE83
S1130A6093E08C1B9D0B80933E0990933F0921C01A
S1130A70DD23B4F460E880E099E00E946D0360E453
S1130A8080E099E00E946703E0E6F6E084818860F4
S1130A908483C751DC4FE0E0F9E0C4AFD5AF09C0AF
S1130AA060EC80E099E00E946D038CE0E0E6F6E003
S1130AB0858310161106C4F460E280E099E00E9478
S1130AC06D0360E180E099E00E946703E0E6F6E0F0
S1130AD084818260848389EE93E0801B910BE0E043
S1130AE0F9E080AF91AF21C01123B4F460E180E05C
S1130AF099E00E946D0360E280E099E00E94670340
S1130B00E0E6F6E084818160848307511C4FE0E0D5
S1130B10F9E002AF13AF09C060E380E099E00E94FE
S1130B206D0383E0E0E6F6E08583DF91CF911F91CA
S1130B300F910895AF92BF92CF92DF92EF92FF92FE
S1130B400F931F93CF93DF937B01E0E4F8E010A2AF
S1130B5011A2A0E0B8E090961D921C92919720A15A
S1130B6031A18C012817390760F5E0E0F8E080A195
S1130B7091A18017910728F5C0E0D0E06894CC24B7
S1130B80C6F8DD24D3F8A12C6894BB24B3F8CE15A1
S1130B90DF050CF42296BE01CE010E9417058FE3F7
S1130BA09FE10197F1F700C00000F60180A191A137
S1130BB08017910730F4F50180A191A18017910766
S1130BC030F3DF91CF911F910F91FF90EF90DF9061
S1130BD0CF90BF90AF900895CF93DF93CDB7DEB79A
S1130BE06E97CDBFDEBF0E94DC04E0E5F0E08081BB
S1130BF08260808360E080E00E948C02E0E5F0E0A7
S1130C00818181FFFDCF81E00E9492020E941D013B
S1130C100E94A60460E071EE80E090E00E946E0104
S1130C208EE0E0E2F6E0818380E3E0E6F6E08283B2
S1130C3080E09DE7E0E0FAE086A397A360E080E02F
S1130C409AE00E94610363E080E09AE00E947403EA
S1130C5061E080E09AE00E945B03E0EAF0E08281D8
S1130C6087608283789483E090E0E0E2F6E02FEFFF
S1130C7033ED40E3215030404040E1F700C0000034
S1130C8024812170286024832FEF33ED40E3215029
S1130C9030404040E1F700C00000248121702483EB
S1130CA00197009721F7E0E6F6E0808590E08095D3
S1130CB0909584FFFACF8FEF93EDE0E3815090405D
S1130CC0E040E1F700C00000E0E2F6E084818170DA
S1130CD082608483FFEF27EA31E6F1502040304000
S1130CE0E1F700C00000812C6894992493F868947B
S1130CF0AA24A6F8BB24B3F80F2EF0E0CF2EF0E21E
S1130D00DF2EF02D8E010F5F1F4F0F2EF0E2EF2E1E
S1130D10F6E0FF2EF02DF40120A131A1F50180A110
S1130D2091A13F932F939F938F93DF92CF921F9321
S1130D300F930E940607FFEF23ED30E3F1502040AC
S1130D403040E1F700C00000C8010E94C001F70173
S1130D50848181708A6084836CE271E084EF91E025
S1130D600E949A05F70184818170848360E070E0B9
S1130D7080E090E00E941705F40120A131A1F50163
S1130D8080A191A13F932F939F938F93DF92CF9252
S1130D901F930F930E940607FFEF23ED30E3F150FA
S1130DA020403040E1F700C00000C8010E94C001AB
S1130DB04FEF8FE493EC415080409040E1F700C046
S1130DC00000CDBFDEBFA7CFA1E21A2EAA1BBB1B1A
S1130DD0FD010DC0AA1FBB1FEE1FFF1FA217B30703
S1130DE0E407F50720F0A21BB30BE40BF50B661F19
S1130DF0771F881F991F1A9469F7609570958095DD
S1130E0090959B01AC01BD01CF010895AEE0B0E027
S1130E10ECE0F7E00C94AE090D891E8986E08C8322
S1130E2009831A838FEF9FE78D839E83AE01475E0C
S1130E305F4F6F89788DCE0101960E942807EF815C
S1130E40F885E00FF11F10822E96E4E00C94C70998
S1130E50ACE0B0E0EEE2F7E00C94A0097C016B0199
S1130E608A01FC0116821782838181FFBDC1CE01F4
S1130E7001964C01F7019381F60193FD859193FF4F
S1130E8081916F01882309F4ABC1853239F493FD54
S1130E90859193FF81916F01853229F4B70190E028
S1130EA00E941009E7CF512C312C20E02032A0F40D
S1130EB08B3269F030F4803259F0833269F4206166
S1130EC02CC08D3239F0803339F4216026C0226081
S1130ED0246023C0286021C027FD27C030ED380FCF
S1130EE03A3078F426FF06C0FAE05F9E300D1124F4
S1130EF0532E13C08AE0389E300D1124332E206205
S1130F000CC08E3221F426FD6BC1206406C08C36E1
S1130F1011F4206802C0883641F4F60193FD8591EE
S1130F2093FF81916F018111C1CF982F9F7D9554BB
S1130F30933028F40C5F1F4FFFE3F9830DC0833611
S1130F4031F0833771F0833509F05BC022C0F801BA
S1130F50808189830E5F1F4F44244394512C540194
S1130F6015C03801F2E06F0E711CF801A080B18049
S1130F7026FF03C0652D70E002C06FEF7FEFC5014F
S1130F802C870E9405092C0183012C852F77222EA2
S1130F9017C03801F2E06F0E711CF801A080B18017
S1130FA026FF03C0652D70E002C06FEF7FEFC5011F
S1130FB02C870E94FA082C012C852068222E83019C
S1130FC023FC1BC0832D90E048165906B0F4B701EA
S1130FD080E290E00E9410093A94F4CFF50127FCD6
S1130FE0859127FE81915F01B70190E00E9410096D
S1130FF031103A94F1E04F1A51084114510471F739
S1131000E5C0843611F0893639F5F80127FF07C0A9
S113101060817181828193810C5F1F4F08C0608160
S11310207181882777FD8095982F0E5F1F4F2F764B
S1131030B22E97FF09C090958095709561957F4F6A
S11310408F4F9F4F2068B22E2AE030E0A4010E9407
S11310504209A82EA81844C0853729F42F7EB22E41
S11310602AE030E025C0F22FF97FBF2E8F36C1F081
S113107018F4883579F0B4C0803719F0883721F036
S1131080AFC02F2F2061B22EB4FE0DC08B2D846013
S1131090B82E09C024FF0AC09F2F9660B92E06C03F
S11310A028E030E005C020E130E002C020E132E079
S11310B0F801B7FE07C060817181828193810C5F62
S11310C01F4F06C06081718180E090E00E5F1F4F6A
S11310D0A4010E944209A82EA818FB2DFF77BF2E59
S11310E0B6FE0BC02B2D2E7FA51450F4B4FE0AC0FF
S11310F0B2FC08C02B2D2E7E05C07A2C2B2D03C0EC
S11311007A2C01C0752C24FF0DC0FE01EA0DF11DDF
S11311108081803311F4297E09C022FF06C07394B4
S1131120739404C0822F867809F0739423FD13C04E
S113113020FF06C05A2C731418F4530C5718732C40
S1131140731468F4B70180E290E02C870E941009C0
S113115073942C85F5CF731410F4371801C0312C17
S113116024FF12C0B70180E390E02C870E9410098D
S11311702C8522FF17C021FF03C088E590E002C040
S113118088E790E0B7010CC0822F867859F021FDE2
S113119002C080E201C08BE227FD8DE2B70190E03E
S11311A00E941009A51438F4B70180E390E00E946E
S11311B010095A94F7CFAA94F401EA0DF11D808125
S11311C0B70190E00E941009A110F5CF332009F473
S11311D051CEB70180E290E00E9410093A94F6CF14
S11311E0F7018681978102C08FEF9FEF2C96E2E191
S11311F00C94B909FC010590615070400110D8F7B6
S1131200809590958E0F9F1F0895FC01615070404A
S113121001900110D8F7809590958E0F9F1F089527
S11312200F931F93CF93DF93182F092FEB018B811B
S113123081FD03C08FEF9FEF20C082FF10C04E815D
S11312405F812C813D81421753077CF4E881F98149
S11312509F012F5F3F4F28833983108306C0E885A1
S1131260F985812F0995892B29F72E813F812F5FDD
S11312703F4F2E833F83812F902FDF91CF911F917A
S11312800F910895FA01AA27283051F1203181F1F4
S1131290E8946F936E7F6E5F7F4F8F4F9F4FAF4F7A
S11312A0B1E03ED0B4E03CD0670F781F891F9A1F8D
S11312B0A11D680F791F8A1F911DA11D6A0F711D41
S11312C0811D911DA11D20D009F468943F912AE04D
S11312D0269F11243019305D3193DEF6CF01089535
S11312E0462F4770405D4193B3E00FD0C9F7F6CF66
S11312F0462F4F70405D4A3318F0495D31FD40522E
S1131300419302D0A9F7EACFB4E0A69597958795C3
S113131077956795BA95C9F70097610571050895A2
S11313209B01AC010A2E069457954795379527954E
S1131330BA95C9F7620F731F841F951FA01D0895E6
S11313402F923F924F925F926F927F928F929F92D1
S1131350AF92BF92CF92DF92EF92FF920F931F93BF
S1131360CF93DF93CDB7DEB7CA1BDB0BCDBFDEBF98
S113137009942A88398848885F846E847D848C84A3
S11313809B84AA84B984C884DF80EE80FD800C81AC
S11313901B81AA81B981CE0FD11DCDBFDEBFED0166
S10913A00895F894FFCF4C
S10B13A625642025640A0000FF
S9030000FC
